{
  "_format": "hh-sol-artifact-1",
  "contractName": "NFT",
  "sourceName": "contracts/NFT.sol",
  "abi": [
    {
      "inputs": [
        {
          "internalType": "address",
          "name": "marketplaceAddress",
          "type": "address"
        }
      ],
      "stateMutability": "nonpayable",
      "type": "constructor"
    },
    {
      "anonymous": false,
      "inputs": [
        {
          "indexed": true,
          "internalType": "address",
          "name": "owner",
          "type": "address"
        },
        {
          "indexed": true,
          "internalType": "address",
          "name": "approved",
          "type": "address"
        },
        {
          "indexed": true,
          "internalType": "uint256",
          "name": "tokenId",
          "type": "uint256"
        }
      ],
      "name": "Approval",
      "type": "event"
    },
    {
      "anonymous": false,
      "inputs": [
        {
          "indexed": true,
          "internalType": "address",
          "name": "owner",
          "type": "address"
        },
        {
          "indexed": true,
          "internalType": "address",
          "name": "operator",
          "type": "address"
        },
        {
          "indexed": false,
          "internalType": "bool",
          "name": "approved",
          "type": "bool"
        }
      ],
      "name": "ApprovalForAll",
      "type": "event"
    },
    {
      "anonymous": false,
      "inputs": [
        {
          "indexed": true,
          "internalType": "address",
          "name": "from",
          "type": "address"
        },
        {
          "indexed": true,
          "internalType": "address",
          "name": "to",
          "type": "address"
        },
        {
          "indexed": true,
          "internalType": "uint256",
          "name": "tokenId",
          "type": "uint256"
        }
      ],
      "name": "Transfer",
      "type": "event"
    },
    {
      "inputs": [
        {
          "internalType": "address",
          "name": "to",
          "type": "address"
        },
        {
          "internalType": "uint256",
          "name": "tokenId",
          "type": "uint256"
        }
      ],
      "name": "approve",
      "outputs": [],
      "stateMutability": "nonpayable",
      "type": "function"
    },
    {
      "inputs": [
        {
          "internalType": "address",
          "name": "owner",
          "type": "address"
        }
      ],
      "name": "balanceOf",
      "outputs": [
        {
          "internalType": "uint256",
          "name": "",
          "type": "uint256"
        }
      ],
      "stateMutability": "view",
      "type": "function"
    },
    {
      "inputs": [
        {
          "internalType": "string",
          "name": "tokenURI",
          "type": "string"
        }
      ],
      "name": "createToken",
      "outputs": [
        {
          "internalType": "uint256",
          "name": "",
          "type": "uint256"
        }
      ],
      "stateMutability": "nonpayable",
      "type": "function"
    },
    {
      "inputs": [
        {
          "internalType": "uint256",
          "name": "tokenId",
          "type": "uint256"
        }
      ],
      "name": "getApproved",
      "outputs": [
        {
          "internalType": "address",
          "name": "",
          "type": "address"
        }
      ],
      "stateMutability": "view",
      "type": "function"
    },
    {
      "inputs": [
        {
          "internalType": "address",
          "name": "owner",
          "type": "address"
        },
        {
          "internalType": "address",
          "name": "operator",
          "type": "address"
        }
      ],
      "name": "isApprovedForAll",
      "outputs": [
        {
          "internalType": "bool",
          "name": "",
          "type": "bool"
        }
      ],
      "stateMutability": "view",
      "type": "function"
    },
    {
      "inputs": [],
      "name": "name",
      "outputs": [
        {
          "internalType": "string",
          "name": "",
          "type": "string"
        }
      ],
      "stateMutability": "view",
      "type": "function"
    },
    {
      "inputs": [],
      "name": "owner",
      "outputs": [
        {
          "internalType": "address",
          "name": "",
          "type": "address"
        }
      ],
      "stateMutability": "view",
      "type": "function"
    },
    {
      "inputs": [
        {
          "internalType": "uint256",
          "name": "tokenId",
          "type": "uint256"
        }
      ],
      "name": "ownerOf",
      "outputs": [
        {
          "internalType": "address",
          "name": "",
          "type": "address"
        }
      ],
      "stateMutability": "view",
      "type": "function"
    },
    {
      "inputs": [
        {
          "internalType": "address",
          "name": "from",
          "type": "address"
        },
        {
          "internalType": "address",
          "name": "to",
          "type": "address"
        },
        {
          "internalType": "uint256",
          "name": "tokenId",
          "type": "uint256"
        }
      ],
      "name": "safeTransferFrom",
      "outputs": [],
      "stateMutability": "nonpayable",
      "type": "function"
    },
    {
      "inputs": [
        {
          "internalType": "address",
          "name": "from",
          "type": "address"
        },
        {
          "internalType": "address",
          "name": "to",
          "type": "address"
        },
        {
          "internalType": "uint256",
          "name": "tokenId",
          "type": "uint256"
        },
        {
          "internalType": "bytes",
          "name": "_data",
          "type": "bytes"
        }
      ],
      "name": "safeTransferFrom",
      "outputs": [],
      "stateMutability": "nonpayable",
      "type": "function"
    },
    {
      "inputs": [
        {
          "internalType": "address",
          "name": "operator",
          "type": "address"
        },
        {
          "internalType": "bool",
          "name": "approved",
          "type": "bool"
        }
      ],
      "name": "setApprovalForAll",
      "outputs": [],
      "stateMutability": "nonpayable",
      "type": "function"
    },
    {
      "inputs": [
        {
          "internalType": "bytes4",
          "name": "interfaceId",
          "type": "bytes4"
        }
      ],
      "name": "supportsInterface",
      "outputs": [
        {
          "internalType": "bool",
          "name": "",
          "type": "bool"
        }
      ],
      "stateMutability": "view",
      "type": "function"
    },
    {
      "inputs": [],
      "name": "symbol",
      "outputs": [
        {
          "internalType": "string",
          "name": "",
          "type": "string"
        }
      ],
      "stateMutability": "view",
      "type": "function"
    },
    {
      "inputs": [
        {
          "internalType": "uint256",
          "name": "tokenId",
          "type": "uint256"
        }
      ],
      "name": "tokenURI",
      "outputs": [
        {
          "internalType": "string",
          "name": "",
          "type": "string"
        }
      ],
      "stateMutability": "view",
      "type": "function"
    },
    {
      "inputs": [
        {
          "internalType": "address",
          "name": "from",
          "type": "address"
        },
        {
          "internalType": "address",
          "name": "to",
          "type": "address"
        },
        {
          "internalType": "uint256",
          "name": "tokenId",
          "type": "uint256"
        }
      ],
      "name": "transferFrom",
      "outputs": [],
      "stateMutability": "nonpayable",
      "type": "function"
    }
  ],
  "bytecode": "0x60806040523480156200001157600080fd5b50604051620019053803806200190583398101604081905262000034916200016b565b6040805180820182526005815264135155151560da1b6020808301918252835180850190945260048452631355151560e21b9084015281519192916200007d91600091620000c5565b50805162000093906001906020840190620000c5565b5050600880546001600160a01b039093166001600160a01b0319938416179055506009805490911633179055620001da565b828054620000d3906200019d565b90600052602060002090601f016020900481019282620000f7576000855562000142565b82601f106200011257805160ff191683800117855562000142565b8280016001018555821562000142579182015b828111156200014257825182559160200191906001019062000125565b506200015092915062000154565b5090565b5b8082111562000150576000815560010162000155565b6000602082840312156200017e57600080fd5b81516001600160a01b03811681146200019657600080fd5b9392505050565b600181811c90821680620001b257607f821691505b60208210811415620001d457634e487b7160e01b600052602260045260246000fd5b50919050565b61171b80620001ea6000396000f3fe608060405234801561001057600080fd5b50600436106100f55760003560e01c80636352211e11610097578063a22cb46511610066578063a22cb465146101ff578063b88d4fde14610212578063c87b56dd14610225578063e985e9c51461023857600080fd5b80636352211e146101be57806370a08231146101d15780638da5cb5b146101e457806395d89b41146101f757600080fd5b8063095ea7b3116100d3578063095ea7b31461016257806323b872dd1461017757806342842e0e1461018a57806345576f941461019d57600080fd5b806301ffc9a7146100fa57806306fdde0314610122578063081812fc14610137575b600080fd5b61010d6101083660046111d1565b610274565b60405190151581526020015b60405180910390f35b61012a6102c6565b6040516101199190611246565b61014a610145366004611259565b610358565b6040516001600160a01b039091168152602001610119565b610175610170366004611289565b6103e5565b005b6101756101853660046112b3565b6104fb565b6101756101983660046112b3565b61052c565b6101b06101ab36600461137b565b610547565b604051908152602001610119565b61014a6101cc366004611259565b6105af565b6101b06101df3660046113c4565b610626565b60095461014a906001600160a01b031681565b61012a6106ad565b61017561020d3660046113df565b6106bc565b61017561022036600461141b565b6106cb565b61012a610233366004611259565b610703565b61010d610246366004611497565b6001600160a01b03918216600090815260056020908152604080832093909416825291909152205460ff1690565b60006001600160e01b031982166380ac58cd60e01b14806102a557506001600160e01b03198216635b5e139f60e01b145b806102c057506301ffc9a760e01b6001600160e01b03198316145b92915050565b6060600080546102d5906114ca565b80601f0160208091040260200160405190810160405280929190818152602001828054610301906114ca565b801561034e5780601f106103235761010080835404028352916020019161034e565b820191906000526020600020905b81548152906001019060200180831161033157829003601f168201915b5050505050905090565b60006103638261087a565b6103c95760405162461bcd60e51b815260206004820152602c60248201527f4552433732313a20617070726f76656420717565727920666f72206e6f6e657860448201526b34b9ba32b73a103a37b5b2b760a11b60648201526084015b60405180910390fd5b506000908152600460205260409020546001600160a01b031690565b60006103f0826105af565b9050806001600160a01b0316836001600160a01b0316141561045e5760405162461bcd60e51b815260206004820152602160248201527f4552433732313a20617070726f76616c20746f2063757272656e74206f776e656044820152603960f91b60648201526084016103c0565b336001600160a01b038216148061047a575061047a8133610246565b6104ec5760405162461bcd60e51b815260206004820152603860248201527f4552433732313a20617070726f76652063616c6c6572206973206e6f74206f7760448201527f6e6572206e6f7220617070726f76656420666f7220616c6c000000000000000060648201526084016103c0565b6104f68383610897565b505050565b6105053382610905565b6105215760405162461bcd60e51b81526004016103c090611505565b6104f68383836109eb565b6104f6838383604051806020016040528060008152506106cb565b6009546000906001600160a01b0316331461056157600080fd5b61056f600780546001019055565b600061057a60075490565b90506105863382610b8b565b6105908184610cbe565b6008546105a7906001600160a01b031660016106bc565b90505b919050565b6000818152600260205260408120546001600160a01b0316806105a75760405162461bcd60e51b815260206004820152602960248201527f4552433732313a206f776e657220717565727920666f72206e6f6e657869737460448201526832b73a103a37b5b2b760b91b60648201526084016103c0565b60006001600160a01b0382166106915760405162461bcd60e51b815260206004820152602a60248201527f4552433732313a2062616c616e636520717565727920666f7220746865207a65604482015269726f206164647265737360b01b60648201526084016103c0565b506001600160a01b031660009081526003602052604090205490565b6060600180546102d5906114ca565b6106c7338383610d49565b5050565b6106d53383610905565b6106f15760405162461bcd60e51b81526004016103c090611505565b6106fd84848484610e18565b50505050565b606061070e8261087a565b6107745760405162461bcd60e51b815260206004820152603160248201527f45524337323155524953746f726167653a2055524920717565727920666f72206044820152703737b732bc34b9ba32b73a103a37b5b2b760791b60648201526084016103c0565b6000828152600660205260408120805461078d906114ca565b80601f01602080910402602001604051908101604052809291908181526020018280546107b9906114ca565b80156108065780601f106107db57610100808354040283529160200191610806565b820191906000526020600020905b8154815290600101906020018083116107e957829003601f168201915b50505050509050600061082460408051602081019091526000815290565b9050805160001415610837575092915050565b815115610869578082604051602001610851929190611556565b60405160208183030381529060405292505050919050565b61087284610e4b565b949350505050565b6000908152600260205260409020546001600160a01b0316151590565b600081815260046020526040902080546001600160a01b0319166001600160a01b03841690811790915581906108cc826105af565b6001600160a01b03167f8c5be1e5ebec7d5bd14f71427d1e84f3dd0314c0f7b2291e5b200ac8c7c3b92560405160405180910390a45050565b60006109108261087a565b6109715760405162461bcd60e51b815260206004820152602c60248201527f4552433732313a206f70657261746f7220717565727920666f72206e6f6e657860448201526b34b9ba32b73a103a37b5b2b760a11b60648201526084016103c0565b600061097c836105af565b9050806001600160a01b0316846001600160a01b031614806109b75750836001600160a01b03166109ac84610358565b6001600160a01b0316145b8061087257506001600160a01b0380821660009081526005602090815260408083209388168352929052205460ff16610872565b826001600160a01b03166109fe826105af565b6001600160a01b031614610a665760405162461bcd60e51b815260206004820152602960248201527f4552433732313a207472616e73666572206f6620746f6b656e2074686174206960448201526839903737ba1037bbb760b91b60648201526084016103c0565b6001600160a01b038216610ac85760405162461bcd60e51b8152602060048201526024808201527f4552433732313a207472616e7366657220746f20746865207a65726f206164646044820152637265737360e01b60648201526084016103c0565b610ad3600082610897565b6001600160a01b0383166000908152600360205260408120805460019290610afc90849061159b565b90915550506001600160a01b0382166000908152600360205260408120805460019290610b2a9084906115b2565b909155505060008181526002602052604080822080546001600160a01b0319166001600160a01b0386811691821790925591518493918716917fddf252ad1be2c89b69c2b068fc378daa952ba7f163c4a11628f55a4df523b3ef91a4505050565b6001600160a01b038216610be15760405162461bcd60e51b815260206004820181905260248201527f4552433732313a206d696e7420746f20746865207a65726f206164647265737360448201526064016103c0565b610bea8161087a565b15610c375760405162461bcd60e51b815260206004820152601c60248201527f4552433732313a20746f6b656e20616c7265616479206d696e7465640000000060448201526064016103c0565b6001600160a01b0382166000908152600360205260408120805460019290610c609084906115b2565b909155505060008181526002602052604080822080546001600160a01b0319166001600160a01b03861690811790915590518392907fddf252ad1be2c89b69c2b068fc378daa952ba7f163c4a11628f55a4df523b3ef908290a45050565b610cc78261087a565b610d2a5760405162461bcd60e51b815260206004820152602e60248201527f45524337323155524953746f726167653a2055524920736574206f66206e6f6e60448201526d32bc34b9ba32b73a103a37b5b2b760911b60648201526084016103c0565b600082815260066020908152604090912082516104f69284019061111f565b816001600160a01b0316836001600160a01b03161415610dab5760405162461bcd60e51b815260206004820152601960248201527f4552433732313a20617070726f766520746f2063616c6c65720000000000000060448201526064016103c0565b6001600160a01b03838116600081815260056020908152604080832094871680845294825291829020805460ff191686151590811790915591519182527f17307eab39ab6107e8899845ad3d59bd9653f200f220920489ca2b5937696c31910160405180910390a3505050565b610e238484846109eb565b610e2f84848484610f23565b6106fd5760405162461bcd60e51b81526004016103c0906115ca565b6060610e568261087a565b610eba5760405162461bcd60e51b815260206004820152602f60248201527f4552433732314d657461646174613a2055524920717565727920666f72206e6f60448201526e3732bc34b9ba32b73a103a37b5b2b760891b60648201526084016103c0565b6000610ed160408051602081019091526000815290565b90506000815111610ef15760405180602001604052806000815250610f1c565b80610efb84611021565b604051602001610f0c929190611556565b6040516020818303038152906040525b9392505050565b60006001600160a01b0384163b1561101657604051630a85bd0160e11b81526001600160a01b0385169063150b7a0290610f6790339089908890889060040161161c565b6020604051808303816000875af1925050508015610fa2575060408051601f3d908101601f19168201909252610f9f91810190611659565b60015b610ffc573d808015610fd0576040519150601f19603f3d011682016040523d82523d6000602084013e610fd5565b606091505b508051610ff45760405162461bcd60e51b81526004016103c0906115ca565b805181602001fd5b6001600160e01b031916630a85bd0160e11b149050610872565b506001949350505050565b6060816110455750506040805180820190915260018152600360fc1b602082015290565b8160005b811561106f578061105981611676565b91506110689050600a836116a7565b9150611049565b60008167ffffffffffffffff81111561108a5761108a6112ef565b6040519080825280601f01601f1916602001820160405280156110b4576020820181803683370190505b5090505b8415610872576110c960018361159b565b91506110d6600a866116bb565b6110e19060306115b2565b60f81b8183815181106110f6576110f66116cf565b60200101906001600160f81b031916908160001a905350611118600a866116a7565b94506110b8565b82805461112b906114ca565b90600052602060002090601f01602090048101928261114d5760008555611193565b82601f1061116657805160ff1916838001178555611193565b82800160010185558215611193579182015b82811115611193578251825591602001919060010190611178565b5061119f9291506111a3565b5090565b5b8082111561119f57600081556001016111a4565b6001600160e01b0319811681146111ce57600080fd5b50565b6000602082840312156111e357600080fd5b8135610f1c816111b8565b60005b838110156112095781810151838201526020016111f1565b838111156106fd5750506000910152565b600081518084526112328160208601602086016111ee565b601f01601f19169290920160200192915050565b602081526000610f1c602083018461121a565b60006020828403121561126b57600080fd5b5035919050565b80356001600160a01b03811681146105aa57600080fd5b6000806040838503121561129c57600080fd5b6112a583611272565b946020939093013593505050565b6000806000606084860312156112c857600080fd5b6112d184611272565b92506112df60208501611272565b9150604084013590509250925092565b634e487b7160e01b600052604160045260246000fd5b600067ffffffffffffffff80841115611320576113206112ef565b604051601f8501601f19908116603f01168101908282118183101715611348576113486112ef565b8160405280935085815286868601111561136157600080fd5b858560208301376000602087830101525050509392505050565b60006020828403121561138d57600080fd5b813567ffffffffffffffff8111156113a457600080fd5b8201601f810184136113b557600080fd5b61087284823560208401611305565b6000602082840312156113d657600080fd5b610f1c82611272565b600080604083850312156113f257600080fd5b6113fb83611272565b91506020830135801515811461141057600080fd5b809150509250929050565b6000806000806080858703121561143157600080fd5b61143a85611272565b935061144860208601611272565b925060408501359150606085013567ffffffffffffffff81111561146b57600080fd5b8501601f8101871361147c57600080fd5b61148b87823560208401611305565b91505092959194509250565b600080604083850312156114aa57600080fd5b6114b383611272565b91506114c160208401611272565b90509250929050565b600181811c908216806114de57607f821691505b602082108114156114ff57634e487b7160e01b600052602260045260246000fd5b50919050565b60208082526031908201527f4552433732313a207472616e736665722063616c6c6572206973206e6f74206f6040820152701ddb995c881b9bdc88185c1c1c9bdd9959607a1b606082015260800190565b600083516115688184602088016111ee565b83519083019061157c8183602088016111ee565b01949350505050565b634e487b7160e01b600052601160045260246000fd5b6000828210156115ad576115ad611585565b500390565b600082198211156115c5576115c5611585565b500190565b60208082526032908201527f4552433732313a207472616e7366657220746f206e6f6e20455243373231526560408201527131b2b4bb32b91034b6b83632b6b2b73a32b960711b606082015260800190565b6001600160a01b038581168252841660208201526040810183905260806060820181905260009061164f9083018461121a565b9695505050505050565b60006020828403121561166b57600080fd5b8151610f1c816111b8565b600060001982141561168a5761168a611585565b5060010190565b634e487b7160e01b600052601260045260246000fd5b6000826116b6576116b6611691565b500490565b6000826116ca576116ca611691565b500690565b634e487b7160e01b600052603260045260246000fdfea2646970667358221220eb21e10f40e87ee3d6130ea16ddf85b7c199c50307e0492867d5f53fbdaf28c064736f6c634300080a0033",
  "linkReferences": {},
  "deployedLinkReferences": {}
}