{
  "_format": "hh-sol-artifact-1",
  "contractName": "NFTMarket",
  "sourceName": "contracts/NFTMarket.sol",
  "abi": [
    {
      "inputs": [],
      "stateMutability": "nonpayable",
      "type": "constructor"
    },
    {
      "anonymous": false,
      "inputs": [
        {
          "indexed": true,
          "internalType": "uint256",
          "name": "itemId",
          "type": "uint256"
        },
        {
          "indexed": true,
          "internalType": "address",
          "name": "nftContract",
          "type": "address"
        },
        {
          "indexed": true,
          "internalType": "uint256",
          "name": "tokenId",
          "type": "uint256"
        },
        {
          "indexed": false,
          "internalType": "address",
          "name": "seller",
          "type": "address"
        },
        {
          "indexed": false,
          "internalType": "address",
          "name": "owner",
          "type": "address"
        },
        {
          "indexed": false,
          "internalType": "uint256",
          "name": "price",
          "type": "uint256"
        },
        {
          "indexed": false,
          "internalType": "bool",
          "name": "sold",
          "type": "bool"
        },
        {
          "indexed": false,
          "internalType": "bool",
          "name": "available",
          "type": "bool"
        },
        {
          "indexed": false,
          "internalType": "uint256",
          "name": "createdAt",
          "type": "uint256"
        },
        {
          "indexed": false,
          "internalType": "uint256",
          "name": "soldAt",
          "type": "uint256"
        },
        {
          "indexed": false,
          "internalType": "uint256",
          "name": "listedAt",
          "type": "uint256"
        }
      ],
      "name": "MarketItemCreated",
      "type": "event"
    },
    {
      "inputs": [
        {
          "internalType": "address",
          "name": "nftContract",
          "type": "address"
        },
        {
          "internalType": "address",
          "name": "_to",
          "type": "address"
        },
        {
          "internalType": "uint256",
          "name": "_tokenId",
          "type": "uint256"
        }
      ],
      "name": "airDrop",
      "outputs": [],
      "stateMutability": "nonpayable",
      "type": "function"
    },
    {
      "inputs": [
        {
          "internalType": "uint256",
          "name": "priceToIncrease",
          "type": "uint256"
        }
      ],
      "name": "calculateNewPrice",
      "outputs": [
        {
          "internalType": "uint256",
          "name": "",
          "type": "uint256"
        }
      ],
      "stateMutability": "pure",
      "type": "function"
    },
    {
      "inputs": [
        {
          "internalType": "address",
          "name": "_newOwner",
          "type": "address"
        }
      ],
      "name": "changeOwner",
      "outputs": [],
      "stateMutability": "nonpayable",
      "type": "function"
    },
    {
      "inputs": [
        {
          "internalType": "address",
          "name": "nftContract",
          "type": "address"
        },
        {
          "internalType": "uint256",
          "name": "tokenId",
          "type": "uint256"
        },
        {
          "internalType": "uint256",
          "name": "price",
          "type": "uint256"
        },
        {
          "internalType": "bool",
          "name": "_available",
          "type": "bool"
        }
      ],
      "name": "createMarketItem",
      "outputs": [],
      "stateMutability": "payable",
      "type": "function"
    },
    {
      "inputs": [
        {
          "internalType": "address",
          "name": "nftContract",
          "type": "address"
        },
        {
          "internalType": "uint256",
          "name": "itemId",
          "type": "uint256"
        },
        {
          "internalType": "bool",
          "name": "sellToAddress",
          "type": "bool"
        }
      ],
      "name": "createMarketSale",
      "outputs": [],
      "stateMutability": "payable",
      "type": "function"
    },
    {
      "inputs": [],
      "name": "fetchItemsCreated",
      "outputs": [
        {
          "components": [
            {
              "internalType": "uint256",
              "name": "itemId",
              "type": "uint256"
            },
            {
              "internalType": "address",
              "name": "nftContract",
              "type": "address"
            },
            {
              "internalType": "uint256",
              "name": "tokenId",
              "type": "uint256"
            },
            {
              "internalType": "address payable",
              "name": "seller",
              "type": "address"
            },
            {
              "internalType": "address",
              "name": "owner",
              "type": "address"
            },
            {
              "internalType": "uint256",
              "name": "price",
              "type": "uint256"
            },
            {
              "internalType": "bool",
              "name": "sold",
              "type": "bool"
            },
            {
              "internalType": "bool",
              "name": "available",
              "type": "bool"
            },
            {
              "internalType": "uint256",
              "name": "createdAt",
              "type": "uint256"
            },
            {
              "internalType": "uint256",
              "name": "soldAt",
              "type": "uint256"
            },
            {
              "internalType": "uint256",
              "name": "listedAt",
              "type": "uint256"
            }
          ],
          "internalType": "struct NFTMarket.MarketItem[]",
          "name": "",
          "type": "tuple[]"
        }
      ],
      "stateMutability": "view",
      "type": "function"
    },
    {
      "inputs": [],
      "name": "fetchMarketItems",
      "outputs": [
        {
          "components": [
            {
              "internalType": "uint256",
              "name": "itemId",
              "type": "uint256"
            },
            {
              "internalType": "address",
              "name": "nftContract",
              "type": "address"
            },
            {
              "internalType": "uint256",
              "name": "tokenId",
              "type": "uint256"
            },
            {
              "internalType": "address payable",
              "name": "seller",
              "type": "address"
            },
            {
              "internalType": "address",
              "name": "owner",
              "type": "address"
            },
            {
              "internalType": "uint256",
              "name": "price",
              "type": "uint256"
            },
            {
              "internalType": "bool",
              "name": "sold",
              "type": "bool"
            },
            {
              "internalType": "bool",
              "name": "available",
              "type": "bool"
            },
            {
              "internalType": "uint256",
              "name": "createdAt",
              "type": "uint256"
            },
            {
              "internalType": "uint256",
              "name": "soldAt",
              "type": "uint256"
            },
            {
              "internalType": "uint256",
              "name": "listedAt",
              "type": "uint256"
            }
          ],
          "internalType": "struct NFTMarket.MarketItem[]",
          "name": "",
          "type": "tuple[]"
        }
      ],
      "stateMutability": "view",
      "type": "function"
    },
    {
      "inputs": [],
      "name": "fetchMarketItemsUnAvailable",
      "outputs": [
        {
          "internalType": "uint256[]",
          "name": "",
          "type": "uint256[]"
        }
      ],
      "stateMutability": "view",
      "type": "function"
    },
    {
      "inputs": [
        {
          "internalType": "address",
          "name": "account",
          "type": "address"
        }
      ],
      "name": "fetchNFTsByAddress",
      "outputs": [
        {
          "components": [
            {
              "internalType": "uint256",
              "name": "itemId",
              "type": "uint256"
            },
            {
              "internalType": "address",
              "name": "nftContract",
              "type": "address"
            },
            {
              "internalType": "uint256",
              "name": "tokenId",
              "type": "uint256"
            },
            {
              "internalType": "address payable",
              "name": "seller",
              "type": "address"
            },
            {
              "internalType": "address",
              "name": "owner",
              "type": "address"
            },
            {
              "internalType": "uint256",
              "name": "price",
              "type": "uint256"
            },
            {
              "internalType": "bool",
              "name": "sold",
              "type": "bool"
            },
            {
              "internalType": "bool",
              "name": "available",
              "type": "bool"
            },
            {
              "internalType": "uint256",
              "name": "createdAt",
              "type": "uint256"
            },
            {
              "internalType": "uint256",
              "name": "soldAt",
              "type": "uint256"
            },
            {
              "internalType": "uint256",
              "name": "listedAt",
              "type": "uint256"
            }
          ],
          "internalType": "struct NFTMarket.MarketItem[]",
          "name": "",
          "type": "tuple[]"
        }
      ],
      "stateMutability": "view",
      "type": "function"
    },
    {
      "inputs": [],
      "name": "fetchNFTsOwner",
      "outputs": [
        {
          "components": [
            {
              "internalType": "uint256",
              "name": "itemId",
              "type": "uint256"
            },
            {
              "internalType": "address",
              "name": "nftContract",
              "type": "address"
            },
            {
              "internalType": "uint256",
              "name": "tokenId",
              "type": "uint256"
            },
            {
              "internalType": "address payable",
              "name": "seller",
              "type": "address"
            },
            {
              "internalType": "address",
              "name": "owner",
              "type": "address"
            },
            {
              "internalType": "uint256",
              "name": "price",
              "type": "uint256"
            },
            {
              "internalType": "bool",
              "name": "sold",
              "type": "bool"
            },
            {
              "internalType": "bool",
              "name": "available",
              "type": "bool"
            },
            {
              "internalType": "uint256",
              "name": "createdAt",
              "type": "uint256"
            },
            {
              "internalType": "uint256",
              "name": "soldAt",
              "type": "uint256"
            },
            {
              "internalType": "uint256",
              "name": "listedAt",
              "type": "uint256"
            }
          ],
          "internalType": "struct NFTMarket.MarketItem[]",
          "name": "",
          "type": "tuple[]"
        }
      ],
      "stateMutability": "view",
      "type": "function"
    },
    {
      "inputs": [],
      "name": "fetchNFTsSeller",
      "outputs": [
        {
          "components": [
            {
              "internalType": "uint256",
              "name": "itemId",
              "type": "uint256"
            },
            {
              "internalType": "address",
              "name": "nftContract",
              "type": "address"
            },
            {
              "internalType": "uint256",
              "name": "tokenId",
              "type": "uint256"
            },
            {
              "internalType": "address payable",
              "name": "seller",
              "type": "address"
            },
            {
              "internalType": "address",
              "name": "owner",
              "type": "address"
            },
            {
              "internalType": "uint256",
              "name": "price",
              "type": "uint256"
            },
            {
              "internalType": "bool",
              "name": "sold",
              "type": "bool"
            },
            {
              "internalType": "bool",
              "name": "available",
              "type": "bool"
            },
            {
              "internalType": "uint256",
              "name": "createdAt",
              "type": "uint256"
            },
            {
              "internalType": "uint256",
              "name": "soldAt",
              "type": "uint256"
            },
            {
              "internalType": "uint256",
              "name": "listedAt",
              "type": "uint256"
            }
          ],
          "internalType": "struct NFTMarket.MarketItem[]",
          "name": "",
          "type": "tuple[]"
        }
      ],
      "stateMutability": "view",
      "type": "function"
    },
    {
      "inputs": [
        {
          "internalType": "uint256",
          "name": "itemId",
          "type": "uint256"
        }
      ],
      "name": "fetchNftById",
      "outputs": [
        {
          "components": [
            {
              "internalType": "uint256",
              "name": "itemId",
              "type": "uint256"
            },
            {
              "internalType": "address",
              "name": "nftContract",
              "type": "address"
            },
            {
              "internalType": "uint256",
              "name": "tokenId",
              "type": "uint256"
            },
            {
              "internalType": "address payable",
              "name": "seller",
              "type": "address"
            },
            {
              "internalType": "address",
              "name": "owner",
              "type": "address"
            },
            {
              "internalType": "uint256",
              "name": "price",
              "type": "uint256"
            },
            {
              "internalType": "bool",
              "name": "sold",
              "type": "bool"
            },
            {
              "internalType": "bool",
              "name": "available",
              "type": "bool"
            },
            {
              "internalType": "uint256",
              "name": "createdAt",
              "type": "uint256"
            },
            {
              "internalType": "uint256",
              "name": "soldAt",
              "type": "uint256"
            },
            {
              "internalType": "uint256",
              "name": "listedAt",
              "type": "uint256"
            }
          ],
          "internalType": "struct NFTMarket.MarketItem",
          "name": "",
          "type": "tuple"
        }
      ],
      "stateMutability": "view",
      "type": "function"
    },
    {
      "inputs": [],
      "name": "getListingPrice",
      "outputs": [
        {
          "internalType": "uint256",
          "name": "",
          "type": "uint256"
        }
      ],
      "stateMutability": "view",
      "type": "function"
    },
    {
      "inputs": [
        {
          "internalType": "uint256[]",
          "name": "itemsId",
          "type": "uint256[]"
        },
        {
          "internalType": "bool",
          "name": "_available",
          "type": "bool"
        }
      ],
      "name": "makeAvailableMarketItem",
      "outputs": [],
      "stateMutability": "nonpayable",
      "type": "function"
    },
    {
      "inputs": [
        {
          "internalType": "address",
          "name": "",
          "type": "address"
        },
        {
          "internalType": "address",
          "name": "",
          "type": "address"
        },
        {
          "internalType": "uint256",
          "name": "",
          "type": "uint256"
        },
        {
          "internalType": "bytes",
          "name": "",
          "type": "bytes"
        }
      ],
      "name": "onERC721Received",
      "outputs": [
        {
          "internalType": "bytes4",
          "name": "",
          "type": "bytes4"
        }
      ],
      "stateMutability": "pure",
      "type": "function"
    },
    {
      "inputs": [],
      "name": "owner",
      "outputs": [
        {
          "internalType": "address payable",
          "name": "",
          "type": "address"
        }
      ],
      "stateMutability": "view",
      "type": "function"
    },
    {
      "inputs": [
        {
          "internalType": "uint256",
          "name": "_listingPrice",
          "type": "uint256"
        }
      ],
      "name": "setListingPrice",
      "outputs": [],
      "stateMutability": "nonpayable",
      "type": "function"
    },
    {
      "inputs": [],
      "name": "withdraw",
      "outputs": [],
      "stateMutability": "nonpayable",
      "type": "function"
    }
  ],
  "bytecode": "0x60806040526658d15e1762800060065534801561001b57600080fd5b506001600055600580546001600160a01b031916331790556120c4806100426000396000f3fe6080604052600436106101095760003560e01c80637c726b6911610095578063a6f9dae111610064578063a6f9dae1146102fe578063ceb5629b1461031e578063e814ce781461033e578063f064c32e14610351578063f9ffc3c21461036657600080fd5b80637c726b69146102715780638a462fbc146102915780638da5cb5b146102b15780638fe4f663146102e957600080fd5b806332c0fba5116100dc57806332c0fba5146101d85780633ccfd60b146101fa578063430b9e2e1461020f578063733e4930146102245780637b6547da1461024457600080fd5b80630f08efe01461010e57806312e8558514610139578063150b7a021461015857806316eb6c84146101b6575b600080fd5b34801561011a57600080fd5b50610123610379565b6040516101309190611c3b565b60405180910390f35b34801561014557600080fd5b506006545b604051908152602001610130565b34801561016457600080fd5b5061019d610173366004611ca6565b7f150b7a023d4804d13e8c85fb27262cb750cf6ba9f9dd3bb30d90f482ceeb4b1f95945050505050565b6040516001600160e01b03199091168152602001610130565b3480156101c257600080fd5b506101cb610565565b6040516101309190611d41565b3480156101e457600080fd5b506101f86101f3366004611d79565b610651565b005b34801561020657600080fd5b506101f8610859565b34801561021b57600080fd5b50610123610921565b34801561023057600080fd5b5061012361023f366004611db5565b610b1f565b34801561025057600080fd5b5061026461025f366004611dd0565b610d39565b6040516101309190611de9565b34801561027d57600080fd5b506101f861028c366004611dd0565b610dea565b34801561029d57600080fd5b5061014a6102ac366004611dd0565b610e19565b3480156102bd57600080fd5b506005546102d1906001600160a01b031681565b6040516001600160a01b039091168152602001610130565b3480156102f557600080fd5b50610123610e36565b34801561030a57600080fd5b506101f8610319366004611db5565b611034565b34801561032a57600080fd5b506101f8610339366004611e1e565b611080565b6101f861034c366004611eee565b61118c565b34801561035d57600080fd5b50610123611533565b6101f8610374366004611f34565b611731565b6060600061038660015490565b9050600061039360025490565b61039d9083611f86565b90506000808267ffffffffffffffff8111156103bb576103bb611df8565b6040519080825280602002602001820160405280156103f457816020015b6103e1611b0f565b8152602001906001900390816103d95790505b50905060005b8481101561055c573060076000610412846001611f9d565b81526020810191909152604001600020600401546001600160a01b031614801561045f575060076000610446836001611f9d565b815260208101919091526040016000206006015460ff16155b1561054a576000610471826001611f9d565b6000818152600760208181526040928390208351610160810185528154815260018201546001600160a01b039081169382019390935260028201549481019490945260038101548216606085015260048101549091166080840152600581015460a0840152600681015460ff808216151560c08601526101009182900416151560e085015291810154918301919091526008810154610120830152600981015461014083015285519293509185908790811061052f5761052f611fb5565b6020908102919091010152610545600186611f9d565b945050505b8061055481611fcb565b9150506103fa565b50949350505050565b6060600061057260015490565b9050600061057f60045490565b90506000808267ffffffffffffffff81111561059d5761059d611df8565b6040519080825280602002602001820160405280156105c6578160200160208202803683370190505b50905060005b8481101561055c57600760006105e3836001611f9d565b8152602081019190915260400160002060060154610100900460ff1661063f576000610610826001611f9d565b90508083858151811061062557610625611fb5565b602090810291909101015261063b600185611f9d565b9350505b8061064981611fcb565b9150506105cc565b6005546001600160a01b031633146106845760405162461bcd60e51b815260040161067b90611fe6565b60405180910390fd5b60008181526007602052604090206006015460ff6101009091041615156001146106e85760405162461bcd60e51b81526020600482015260156024820152744974656d206973206e6f7420617661696c61626c6560581b604482015260640161067b565b6000818152600760205260409020600401546001600160a01b03163314156107525760405162461bcd60e51b815260206004820181905260248201527f596f752063616e2774206169722064726f7020796f7572206f776e206974656d604482015260640161067b565b6000818152600760205260409020600401546001600160a01b03838116911614156107bf5760405162461bcd60e51b815260206004820152601e60248201527f596f752063616e2774206169722064726f7020746f20796f757273656c660000604482015260640161067b565b6040516323b872dd60e01b81523060048201526001600160a01b038381166024830152604482018390528416906323b872dd90606401600060405180830381600087803b15801561080f57600080fd5b505af1158015610823573d6000803e3d6000fd5b50505060009182525060076020526040902060030180546001600160a01b0319166001600160a01b039290921691909117905550565b6005546001600160a01b031633146108835760405162461bcd60e51b815260040161067b90611fe6565b6040514790600090339083908381818185875af1925050503d80600081146108c7576040519150601f19603f3d011682016040523d82523d6000602084013e6108cc565b606091505b505090508061091d5760405162461bcd60e51b815260206004820152601960248201527f4661696c656420746f2077697468647261772045746865727300000000000000604482015260640161067b565b5050565b6060600061092e60015490565b905060008060005b8381101561099157336007600061094e846001611f9d565b81526020810191909152604001600020600401546001600160a01b0316141561097f5761097c600184611f9d565b92505b8061098981611fcb565b915050610936565b5060008267ffffffffffffffff8111156109ad576109ad611df8565b6040519080825280602002602001820160405280156109e657816020015b6109d3611b0f565b8152602001906001900390816109cb5790505b50905060005b8481101561055c573360076000610a04846001611f9d565b81526020810191909152604001600020600401546001600160a01b03161415610b0d576000610a34826001611f9d565b6000818152600760208181526040928390208351610160810185528154815260018201546001600160a01b039081169382019390935260028201549481019490945260038101548216606085015260048101549091166080840152600581015460a0840152600681015460ff808216151560c08601526101009182900416151560e0850152918101549183019190915260088101546101208301526009810154610140830152855192935091859087908110610af257610af2611fb5565b6020908102919091010152610b08600186611f9d565b945050505b80610b1781611fcb565b9150506109ec565b60606000610b2c60015490565b905060008060005b83811015610b98576001600160a01b03861660076000610b55846001611f9d565b81526020810191909152604001600020600301546001600160a01b03161415610b8657610b83600184611f9d565b92505b80610b9081611fcb565b915050610b34565b5060008267ffffffffffffffff811115610bb457610bb4611df8565b604051908082528060200260200182016040528015610bed57816020015b610bda611b0f565b815260200190600190039081610bd25790505b50905060005b84811015610d2f576001600160a01b03871660076000610c14846001611f9d565b81526020810191909152604001600020600301546001600160a01b03161415610d1d576000610c44826001611f9d565b6000818152600760208181526040928390208351610160810185528154815260018201546001600160a01b039081169382019390935260028201549481019490945260038101548216606085015260048101549091166080840152600581015460a0840152600681015460ff808216151560c08601526101009182900416151560e0850152918101549183019190915260088101546101208301526009810154610140830152855192935091859087908110610d0257610d02611fb5565b6020908102919091010152610d18600186611f9d565b945050505b80610d2781611fcb565b915050610bf3565b5095945050505050565b610d41611b0f565b506000908152600760208181526040928390208351610160810185528154815260018201546001600160a01b039081169382019390935260028201549481019490945260038101548216606085015260048101549091166080840152600581015460a0840152600681015460ff808216151560c08601526101009182900416151560e0850152918101549183019190915260088101546101208301526009015461014082015290565b6005546001600160a01b03163314610e145760405162461bcd60e51b815260040161067b90611fe6565b600655565b6000610e30610e2983607d611a8d565b6064611aa0565b92915050565b60606000610e4360015490565b905060008060005b83811015610ea6573360076000610e63846001611f9d565b81526020810191909152604001600020600301546001600160a01b03161415610e9457610e91600184611f9d565b92505b80610e9e81611fcb565b915050610e4b565b5060008267ffffffffffffffff811115610ec257610ec2611df8565b604051908082528060200260200182016040528015610efb57816020015b610ee8611b0f565b815260200190600190039081610ee05790505b50905060005b8481101561055c573360076000610f19846001611f9d565b81526020810191909152604001600020600301546001600160a01b03161415611022576000610f49826001611f9d565b6000818152600760208181526040928390208351610160810185528154815260018201546001600160a01b039081169382019390935260028201549481019490945260038101548216606085015260048101549091166080840152600581015460a0840152600681015460ff808216151560c08601526101009182900416151560e085015291810154918301919091526008810154610120830152600981015461014083015285519293509185908790811061100757611007611fb5565b602090810291909101015261101d600186611f9d565b945050505b8061102c81611fcb565b915050610f01565b6005546001600160a01b0316331461105e5760405162461bcd60e51b815260040161067b90611fe6565b600580546001600160a01b0319166001600160a01b0392909216919091179055565b6005546001600160a01b031633146110aa5760405162461bcd60e51b815260040161067b90611fe6565b600260005414156110cd5760405162461bcd60e51b815260040161067b90612016565b600260009081555b82518110156111825760008382815181106110f2576110f2611fb5565b602090810291909101810151600081815260079092526040909120600681018054861580156101000261ff0019909216919091179091554260099092019190915590915061115757611148600380546001019055565b6111526004611aac565b61116f565b6111616003611aac565b61116f600480546001019055565b508061117a81611fcb565b9150506110d5565b5050600160005550565b6005546001600160a01b031633146111b65760405162461bcd60e51b815260040161067b90611fe6565b600260005414156111d95760405162461bcd60e51b815260040161067b90612016565b60026000556006548210156112495760405162461bcd60e51b815260206004820152603060248201527f5072696365206d75737420626520657175616c206f72207375706572696f722060448201526f746f206c697374696e6720707269636560801b606482015260840161067b565b611257600180546001019055565b600061126260015490565b90504260008184156112815761127c600380546001019055565b611292565b506000611292600480546001019055565b604051806101600160405280858152602001896001600160a01b03168152602001888152602001600560009054906101000a90046001600160a01b03166001600160a01b03168152602001306001600160a01b03168152602001878152602001600015158152602001861515815260200184815260200183815260200182815250600760008681526020019081526020016000206000820151816000015560208201518160010160006101000a8154816001600160a01b0302191690836001600160a01b031602179055506040820151816002015560608201518160030160006101000a8154816001600160a01b0302191690836001600160a01b0316021790555060808201518160040160006101000a8154816001600160a01b0302191690836001600160a01b0316021790555060a0820151816005015560c08201518160060160006101000a81548160ff02191690831515021790555060e08201518160060160016101000a81548160ff021916908315150217905550610100820151816007015561012082015181600801556101408201518160090155905050876001600160a01b03166342842e0e33308a6040518463ffffffff1660e01b815260040161147e939291906001600160a01b039384168152919092166020820152604081019190915260600190565b600060405180830381600087803b15801561149857600080fd5b505af11580156114ac573d6000803e3d6000fd5b50506040805133815230602082015290810189905260006060820152871515608082015260a0810186905260c0810185905260e081018490528992506001600160a01b038b16915086907f7d7803f56c341bce6fec4a3c91e0d6b284b8f1ee60a6e4e5b967d9939412dafb906101000160405180910390a450506001600055505050505050565b6060600061154060015490565b905060008060005b838110156115a3573360076000611560846001611f9d565b81526020810191909152604001600020600301546001600160a01b031614156115915761158e600184611f9d565b92505b8061159b81611fcb565b915050611548565b5060008267ffffffffffffffff8111156115bf576115bf611df8565b6040519080825280602002602001820160405280156115f857816020015b6115e5611b0f565b8152602001906001900390816115dd5790505b50905060005b8481101561055c573360076000611616846001611f9d565b81526020810191909152604001600020600301546001600160a01b0316141561171f576000611646826001611f9d565b6000818152600760208181526040928390208351610160810185528154815260018201546001600160a01b039081169382019390935260028201549481019490945260038101548216606085015260048101549091166080840152600581015460a0840152600681015460ff808216151560c08601526101009182900416151560e085015291810154918301919091526008810154610120830152600981015461014083015285519293509185908790811061170457611704611fb5565b602090810291909101015261171a600186611f9d565b945050505b8061172981611fcb565b9150506115fe565b600260005414156117545760405162461bcd60e51b815260040161067b90612016565b600260009081558161177757600083815260076020526040902060050154611794565b600083815260076020526040902060050154611794906002611a8d565b600084815260076020526040902060020154909150348214611820576040805162461bcd60e51b81526020600482015260248101919091527f506c65617365207375626d6974207468652061736b696e67207072696365206960448201527f6e206f7264657220746f20636f6d706c65746520746865207075726368617365606482015260840161067b565b600084815260076020526040902060060154610100900460ff16806118935760405162461bcd60e51b815260206004820152602360248201527f54686973206974656d206973206e6f7420617661696c61626c6520666f722073604482015262616c6560e81b606482015260840161067b565b6000858152600760205260408120600501546118b490610e2990605f611a8d565b905060006118c28583611b03565b600088815260076020526040808220600301549051929350909182916001600160a01b03169085908381818185875af1925050503d8060008114611922576040519150601f19603f3d011682016040523d82523d6000602084013e611927565b606091505b5091509150816119795760405162461bcd60e51b815260206004820152601e60248201527f4661696c656420746f2073656e6420457468657220746f2073656c6c65720000604482015260640161067b565b8715611a36576040516323b872dd60e01b8152306004820152336024820152604481018790526001600160a01b038b16906323b872dd90606401600060405180830381600087803b1580156119cd57600080fd5b505af11580156119e1573d6000803e3d6000fd5b50505060008a81526007602052604090206004810180546001600160a01b031990811633179091556003820180549091169055600601805460ff1916600117905550611a31600280546001019055565b611a7c565b60008981526007602052604081206003810180546001600160a01b0319163317905542600890910155611a6888610e19565b60008b815260076020526040902060050155505b505060016000555050505050505050565b6000611a99828461204d565b9392505050565b6000611a99828461206c565b805480611afb5760405162461bcd60e51b815260206004820152601b60248201527f436f756e7465723a2064656372656d656e74206f766572666c6f770000000000604482015260640161067b565b600019019055565b6000611a998284611f86565b6040518061016001604052806000815260200160006001600160a01b031681526020016000815260200160006001600160a01b0316815260200160006001600160a01b03168152602001600081526020016000151581526020016000151581526020016000815260200160008152602001600081525090565b805182526020810151611ba660208401826001600160a01b03169052565b50604081015160408301526060810151611bcb60608401826001600160a01b03169052565b506080810151611be660808401826001600160a01b03169052565b5060a081015160a083015260c0810151611c0460c084018215159052565b5060e0810151611c1860e084018215159052565b506101008181015190830152610120808201519083015261014090810151910152565b6020808252825182820181905260009190848201906040850190845b81811015611c7e57611c6a838551611b88565b928401926101609290920191600101611c57565b50909695505050505050565b80356001600160a01b0381168114611ca157600080fd5b919050565b600080600080600060808688031215611cbe57600080fd5b611cc786611c8a565b9450611cd560208701611c8a565b935060408601359250606086013567ffffffffffffffff80821115611cf957600080fd5b818801915088601f830112611d0d57600080fd5b813581811115611d1c57600080fd5b896020828501011115611d2e57600080fd5b9699959850939650602001949392505050565b6020808252825182820181905260009190848201906040850190845b81811015611c7e57835183529284019291840191600101611d5d565b600080600060608486031215611d8e57600080fd5b611d9784611c8a565b9250611da560208501611c8a565b9150604084013590509250925092565b600060208284031215611dc757600080fd5b611a9982611c8a565b600060208284031215611de257600080fd5b5035919050565b6101608101610e308284611b88565b634e487b7160e01b600052604160045260246000fd5b80358015158114611ca157600080fd5b60008060408385031215611e3157600080fd5b823567ffffffffffffffff80821115611e4957600080fd5b818501915085601f830112611e5d57600080fd5b8135602082821115611e7157611e71611df8565b8160051b604051601f19603f83011681018181108682111715611e9657611e96611df8565b604052928352818301935084810182019289841115611eb457600080fd5b948201945b83861015611ed257853585529482019493820193611eb9565b9650611ee19050878201611e0e565b9450505050509250929050565b60008060008060808587031215611f0457600080fd5b611f0d85611c8a565b93506020850135925060408501359150611f2960608601611e0e565b905092959194509250565b600080600060608486031215611f4957600080fd5b611f5284611c8a565b925060208401359150611f6760408501611e0e565b90509250925092565b634e487b7160e01b600052601160045260246000fd5b600082821015611f9857611f98611f70565b500390565b60008219821115611fb057611fb0611f70565b500190565b634e487b7160e01b600052603260045260246000fd5b6000600019821415611fdf57611fdf611f70565b5060010190565b6020808252601690820152754f6e6c79206f776e65722063616e20646f207468697360501b604082015260600190565b6020808252601f908201527f5265656e7472616e637947756172643a207265656e7472616e742063616c6c00604082015260600190565b600081600019048311821515161561206757612067611f70565b500290565b60008261208957634e487b7160e01b600052601260045260246000fd5b50049056fea2646970667358221220a08249fdfbcb04cfd6bd01339d5f189b32a2ee0333ee16bded8a1375c64b7cac64736f6c634300080a0033",
  "linkReferences": {},
  "deployedLinkReferences": {}
}